:020000040000fa
:080000000002040000000000f2
:020000040000fa
:0400080046030000ab
:020000040000fa
:04000c0046030000a7
:020000040000fa
:0400100046030000a3
:020000040000fa
:04001400460300009f
:020000040000fa
:04001800460300009b
:020000040000fa
:04001c004603000097
:020000040000fa
:040020004603000093
:020000040000fa
:04002400460300008f
:020000040000fa
:04002800460300008b
:020000040000fa
:04002c004603000087
:020000040000fa
:040030004603000083
:020000040000fa
:04003400f0020000d6
:020000040000fa
:04003800460300007b
:020000040000fa
:04003c004603000077
:020000040000fa
:040040004603000073
:020000040000fa
:04004400460300006f
:020000040000fa
:04004800460300006b
:020000040000fa
:04004c004603000067
:020000040000fa
:040050004603000063
:020000040000fa
:04005400460300005f
:020000040000fa
:04005800460300005b
:020000040000fa
:04005c00c8020000d6
:020000040000fa
:040060004603000053
:020000040000fa
:04006400460300004f
:020000040000fa
:04006800460300004b
:020000040000fa
:04006c004603000047
:020000040000fa
:040070004603000043
:020000040000fa
:04007400460300003f
:020000040000fa
:04007800460300003b
:020000040000fa
:04007c004603000037
:020000040000fa
:040080004603000033
:020000040000fa
:04008400460300002f
:020000040000fa
:04008800460300002b
:020000040000fa
:04008c004603000027
:020000040000fa
:040090004603000023
:020000040000fa
:04009400460300001f
:020000040000fa
:04009800460300001b
:020000040000fa
:04009c004603000017
:020000040000fa
:0400a0004603000013
:020000040000fa
:0400a400460300000f
:020000040000fa
:0400a800460300000b
:020000040000fa
:0400ac004603000007
:020000040000fa
:0400b0004603000003
:020000040000fa
:0400b40046030000ff
:020000040000fa
:0400b80046030000fb
:020000040000fa
:0400bc0046030000f7
:020000040000fa
:0400c00046030000f3
:020000040000fa
:0400c40046030000ef
:020000040000fa
:0400c80046030000eb
:020000040000fa
:0400cc0046030000e7
:020000040000fa
:0400d00046030000e3
:020000040000fa
:0400d40046030000df
:020000040000fa
:0400d80046030000db
:020000040000fa
:0400dc0046030000d7
:020000040000fa
:0400e00046030000d3
:020000040000fa
:0400e40046030000cf
:020000040000fa
:0400e80046030000cb
:020000040000fa
:0400ec0046030000c7
:020000040000fa
:0400f00046030000c3
:020000040000fa
:0400f40046030000bf
:020000040000fa
:0400f80046030000bb
:020000040000fa
:0400fc0046030000b7
:020000040000fa
:0401000046030000b2
:020000040000fa
:0401040046030000ae
:020000040000fa
:0401080046030000aa
:020000040000fa
:04010c0046030000a6
:020000040000fa
:0401100046030000a2
:020000040000fa
:04011400460300009e
:020000040000fa
:04011800460300009a
:020000040000fa
:04011c004603000096
:020000040000fa
:040120004603000092
:020000040000fa
:04012400460300008e
:020000040000fa
:04012800460300008a
:020000040000fa
:04012c004603000086
:020000040000fa
:040130004603000082
:020000040000fa
:04013400460300007e
:020000040000fa
:04013800460300007a
:020000040000fa
:04013c004603000076
:020000040000fa
:040140004603000072
:020000040000fa
:04014400460300006e
:020000040000fa
:04014800460300006a
:020000040000fa
:0402080046030000a9
:020000040000fa
:04020c0046030000a5
:020000040000fa
:0402100046030000a1
:020000040000fa
:04021400460300009d
:020000040000fa
:040218004603000099
:020000040000fa
:04021c004603000095
:020000040000fa
:040220004603000091
:020000040000fa
:04022400460300008d
:020000040000fa
:040228004603000089
:020000040000fa
:04022c004603000085
:020000040000fa
:040230004603000081
:020000040000fa
:04023400f0020000d4
:020000040000fa
:040238004603000079
:020000040000fa
:04023c004603000075
:020000040000fa
:040240004603000071
:020000040000fa
:04024400460300006d
:020000040000fa
:040248004603000069
:020000040000fa
:04024c004603000065
:020000040000fa
:040250004603000061
:020000040000fa
:04025400460300005d
:020000040000fa
:040258004603000059
:020000040000fa
:04025c00c8020000d4
:020000040000fa
:040260004603000051
:020000040000fa
:04026400460300004d
:020000040000fa
:040268004603000049
:020000040000fa
:04026c004603000045
:020000040000fa
:040270004603000041
:020000040000fa
:04027400460300003d
:020000040000fa
:040278004603000039
:020000040000fa
:04027c004603000035
:020000040000fa
:040280004603000031
:020000040000fa
:04028400460300002d
:020000040000fa
:040288004603000029
:020000040000fa
:04028c004603000025
:020000040000fa
:040290004603000021
:020000040000fa
:04029400460300001d
:020000040000fa
:040298004603000019
:020000040000fa
:04029c004603000015
:020000040000fa
:0402a0004603000011
:020000040000fa
:0402a400460300000d
:020000040000fa
:0402a8004603000009
:020000040000fa
:0402ac004603000005
:020000040000fa
:0402b0004603000001
:020000040000fa
:0402b40046030000fd
:020000040000fa
:0402b80046030000f9
:020000040000fa
:0402bc0046030000f5
:020000040000fa
:0402c00046030000f1
:020000040000fa
:0402c40046030000ed
:020000040000fa
:0402c80046030000e9
:020000040000fa
:0402cc0046030000e5
:020000040000fa
:0402d00046030000e1
:020000040000fa
:0402d40046030000dd
:020000040000fa
:0402d80046030000d9
:020000040000fa
:0402dc0046030000d5
:020000040000fa
:0402e00046030000d1
:020000040000fa
:0402e40046030000cd
:020000040000fa
:0402e80046030000c9
:020000040000fa
:0402ec0046030000c5
:020000040000fa
:0402f00046030000c1
:020000040000fa
:0402f40046030000bd
:020000040000fa
:0402f80046030000b9
:020000040000fa
:0402fc0046030000b5
:020000040000fa
:0403000046030000b0
:020000040000fa
:0403040046030000ac
:020000040000fa
:0403080046030000a8
:020000040000fa
:04030c0046030000a4
:020000040000fa
:0403100046030000a0
:020000040000fa
:04031400460300009c
:020000040000fa
:040318004603000098
:020000040000fa
:04031c004603000094
:020000040000fa
:040320004603000090
:020000040000fa
:04032400460300008c
:020000040000fa
:040328004603000088
:020000040000fa
:04032c004603000084
:020000040000fa
:040330004603000080
:020000040000fa
:04033400460300007c
:020000040000fa
:040338004603000078
:020000040000fa
:04033c004603000074
:020000040000fa
:040340004603000070
:020000040000fa
:04034400460300006c
:020000040000fa
:040348004603000068
:020000040000fa
:100400008f9020000e7f22000e0188000000000067
:10041000000020000000e000020032000001200087
:1004200020028800140007009a0007000000e00086
:1004300003003a008077200001002000020037000e
:100440000000200001002000810f70000100320038
:1004500014000700000020000000e000020032004d
:1004600000000200000000004a0702000000000037
:100470000040da000000fe004440a9000000200017
:100480000000e0000300320000002000a00188000e
:100490004440a800000006008a1f78008b1f7800e7
:1004a0000000060091018800800478000000eb0045
:1004b0001a003700e284440032a0b4009905ba0063
:1004c000e284440032a0b4009906ba00e2844400f9
:1004d00032a0b4000006eb00476fde00fd07b2005b
:1004e000636ce10003003a00ebff07000000eb0043
:1004f0000a003700606ce10004003a00005deb0088
:100500008b05e900fdff3e00040037006168e10053
:10051000010032000086eb000b00070019c7ba008b
:100520001905ba000e04e00003003a000a00e000da
:10053000e0ff3a0000000600fe07b2009e018800be
:100540008a047800f5ff3700395dba008b05e900b1
:100550000c003200295dba008b05e900080032006a
:100560000c00e00003003a00e284440032a0b40032
:10057000f5ff370019ddba008b05e900faff3a00f4
:100580008904e800e184440032a0b40000000600c1
:100590003600f800809fbe00829fbe00849fbe0090
:1005a000869fbe003400f80000002000a0018800f3
:1005b0000000fa0085a0a900001880009301070040
:1005c0000080fa003400f9004f03be004f02be0065
:1005d0004f01be004f00be003600f900004006008b
:1005e0003600f800809fbe00829fbe00849fbe0040
:1005f000869fbe003400f80000002000a0018800a3
:100600000400fa008460a9007c010700cf80de00ae
:10061000a00007003233230033b52300f3000700a6
:1006200012fb2b00c3f923001b00070002802300ec
:10063000736c2400ed0007007500070000007800cf
:1006400000f0a7000000ea00cf80de009100070064
:10065000008fbe001e00be006d0007000000780085
:100660000001eb008000eb00db0107000080fa00d6
:100670003400f9004f03be004f02be004f01be0020
:100680004f00be003600f900004006000040da00ce
:100690000000fe000000050003f0a200889fbe00dd
:1006a0008a9fbe008c1f7800b8000700bf0033008f
:1006b0006450e1004f0032006420e100520032003b
:1006c00003826c0007003b000905d0000306d00040
:1006d000820f54000c065d00020039000200320057
:1006e00089017800030678008582550004003d00ea
:1006f0000003fd008103fd008502ea008b854200b6
:10070000840f720002003b0060001000e0801800bf
:100710006011b8000005eb007a28e1000a003900fa
:1007200006007800c75ddd00f707b200878075001e
:100730002d003700828171000a0178006105600098
:100740008180d1000080d3008502e900f9ff3b00e1
:10075000060440008784480002003b006004140047
:10076000e0841c000988a300070032008a81710020
:1007700082817100610164008904d1000884d30082
:100780008b05e800170037000978a30013003a0032
:100790000b00e000130034008b05e900080444005e
:1007a00089844c000a4474000978a3000d003a00c3
:1007b0000b00e000070034008b05e900080444004a
:1007c00089844c0001003a000b0020000978a30046
:1007d000f7ff32000001eb00020037008281710058
:1007e0000a0178002e0007000cf0a70001f0a0001d
:1007f000770037006420e10002003a00838f6c002c
:10080000770033000801be000200be007000370010
:100810000001be00480007000470a70003f0a1001b
:100820006509b100160032000d0035006828e100ae
:1008300006003500f0ff2f00f1ff27000300e00065
:1008400013003b00010028000000050000004000ec
:10085000818048008502e900fcff3a00080037006b
:10086000f88f420002003c008000eb000000050011
:100870008100d1000080d3008502e800fcff3a002f
:100880000300e00002003b0060001000e080180060
:10089000000006004f89de008201780087003700e3
:1008a00081002000618055000b003d000b002000fe
:1008b00061fe2f000100e1001d0034008281710003
:1008c000610164008904d1000884d3000000e800bd
:1008d000faff3a007100200061006400030070001c
:1008e000020060000900320061044400e0844c0012
:1008f0000988a500050032008b05e8006808e100c2
:1009000002003a008904d1000884d300f20f2000cd
:100910000258e10005003d00c75ddd00f907b200a7
:100920008980750008007800000006000bf8270099
:100930008b00780000000500c70ade00f107b20056
:10094000f50fb20008003200e1cf42000200320091
:100950000170a00024000500810f7000010032002a
:100960000408050044000500810f700002003a00f1
:10097000140005008502e9000000400081c0480025
:10098000fcff3b000170a000240005000004be0035
:10099000e9ff07000003be000405be000200be0020
:1009a000e5ff0700844f7500000006000200be004e
:1009b0006450e100050036006420e10002003600ca
:1009c0000968a30001003a000800be000160a00011
:1009d0004f0678004f05be004f04be000000060021
:1009e000f0ff2f00f1ff2700f9ff3700889fbe00be
:1009f0008a9fbe008c1f7800e4ff0700ebff3300e6
:100a000003866c006450e100240032006420e100a1
:100a1000270032006150e100220032006120e10035
:100a2000210032008b854200eb07b1000134b80091
:100a3000003ab8000804420089844a00013ab8002c
:100a40000030b8008880400009014a0004003300eb
:100a50000000400081804800020149008b05e90048
:100a6000c909dd008301700001003200130020007d
:100a7000c814de004814dd004709de001200b20091
:100a8000c808de000884700085ff070001f0a1009f
:100a90000cf0a70001f0a000cdff37006120e100bd
:100aa000cfff32000801be000200be00f7ff370092
:100ab0006150e100fcff3a00c9ff3700881f780051
:100ac000030478000300e00007003d006000100010
:100ad000e080180060011900e081190002003b006d
:100ae00001f02d00030037000400070008f0a70004
:100af00001f0a0004f04780000000600889fbe00af
:100b00008a9fbe000082700004027100048271009e
:100b1000260032000004be000200be006011b800d2
:100b20006b092000950220000182cf000a003900e5
:100b30000541b1000082cf00070039000541b10036
:100b40000982cf00040039000541b1000882cf00be
:100b5000010039000541b100054252001200320087
:100b60000a003b0082817100610164008100d100b4
:100b70000080d3008984d3000884d3008b05e8006b
:100b80000442e800f7ff3a00070037000804440079
:100b900089844c0000004800818048008b05e900f2
:100ba0000442e900f9ff3a003dff07004f05be008f
:080bb0004f04be000000060026
:020000040000fa
:100bb8000200fa000000eb00000f78000700370081
:100bc8001e007800800040008080200000804000e7
:100bd8008000eb00010878001e0fe800f0072000f5
:100be8009e007800808f5000f5ff34000080fa00e6
:100bf800000006000000fa00004080000080fa00b3
:100c0800000006000200fa00000f78002240800071
:100c18003340800010408000800040008080200029
:100c28000080400010007800cf80de0000005100f6
:100c38008180590020408800314088001e007800db
:100c48006101b9002040800031408000020040006e
:100c58008380480020408800314088002040800080
:100c6800314080004909dd004700de0000007100c6
:100c7800c708de00000078000040880010408000af
:100c88008000400080802000008040001e0878001e
:100c9800104080008000e800f00728000080600015
:100ca8000000e00004003d000000e90001f82f000a
:100cb800008070000000e800104088000080fa0002
:100cc800000006000000fa002c23a900c022a8009a
:100cd8004119800000ff2f00008060000000a00084
:100ce8004019880028e3a90011198000f0ff2100ad
:100cf800008060001019880025e3a9002463ef0034
:100d080001198000f0f12f00008060000060a00051
:100d18000019880001198000f0cf2f0000806000c2
:100d2800001988001119800030fc2f000080600035
:100d3800101988002043a80085a0a90095a0a80044
:100d48001061a90013e1a90091088000f0fc2f00b0
:100d5800008060000050a00090088800901e2000cd
:100d68007008880013e1a80021e3a8000080fa00b9
:100d7800000006000600fa00200798008000200006
:100d8800000f78000d0037001e00e9001100200058
:100d98008008dd002e009000008060001007980099
:100da8001e0090000000e000020032004100070031
:100db80001003700380007001e0fe9001e00780008
:100dc8000000e000f0ff3c000080fa000000060090
:100dd8000600fa00000f7800110798002207980013
:100de8001e007800e3ff07001e009000e1ff0700e7
:100df8002e009000dfff0700c422ef003400070038
:100e08000080fa00000006000000fa00213a800085
:100e1800f08f2f0000806000203a8800f0ff290042
:100e280060198800e0ff2f000016880010002000dd
:100e3800201688000080fa00000006000000fa0072
:100e480005e1a90021088000f0fc2f000080600067
:100e58000050a00020088800701a2600100888009a
:100e68009460a8008460a90005e1a8000080fa0049
:100e7800000006000000fa00e3ff070091ff0700ea
:100e8800eeff07000080fa00000006000000fa00ec
:100e9800f8ff0700ffff3700c422ec000300090039
:100ea80000000000c422ed00060009000000000058
:100eb80000000600c422ec00080009000000000041
:100ec800c422ed0001000900000000000000060037
:100ed800390609000000000000000600793e0900fc
:080ee8000000000000000600fc
:020000040000fa
:100ef00008080000000100000000000000080000d9
:0c0f0000080000000000000000000000dd
:020000040000fa
:020000040001f9
:0457f8000ff90000a5
:020000040000fa
:020000040001f9
:0457fc007f3f0000eb
:00000001FF
