:020000040000fa
:080000000002040000000000f2
:020000040000fa
:0400080016030000db
:020000040000fa
:04000c0016030000d7
:020000040000fa
:0400100016030000d3
:020000040000fa
:0400140016030000cf
:020000040000fa
:0400180016030000cb
:020000040000fa
:04001c0016030000c7
:020000040000fa
:0400200016030000c3
:020000040000fa
:0400240016030000bf
:020000040000fa
:0400280016030000bb
:020000040000fa
:04002c0016030000b7
:020000040000fa
:0400300016030000b3
:020000040000fa
:04003400e0020000e6
:020000040000fa
:0400380016030000ab
:020000040000fa
:04003c0016030000a7
:020000040000fa
:0400400016030000a3
:020000040000fa
:04004400160300009f
:020000040000fa
:04004800160300009b
:020000040000fa
:04004c001603000097
:020000040000fa
:040050001603000093
:020000040000fa
:04005400160300008f
:020000040000fa
:04005800160300008b
:020000040000fa
:04005c00c8020000d6
:020000040000fa
:040060001603000083
:020000040000fa
:04006400160300007f
:020000040000fa
:04006800160300007b
:020000040000fa
:04006c001603000077
:020000040000fa
:040070001603000073
:020000040000fa
:04007400160300006f
:020000040000fa
:04007800160300006b
:020000040000fa
:04007c001603000067
:020000040000fa
:040080001603000063
:020000040000fa
:04008400160300005f
:020000040000fa
:04008800160300005b
:020000040000fa
:04008c001603000057
:020000040000fa
:040090001603000053
:020000040000fa
:04009400160300004f
:020000040000fa
:04009800160300004b
:020000040000fa
:04009c001603000047
:020000040000fa
:0400a0001603000043
:020000040000fa
:0400a400160300003f
:020000040000fa
:0400a800160300003b
:020000040000fa
:0400ac001603000037
:020000040000fa
:0400b0001603000033
:020000040000fa
:0400b400160300002f
:020000040000fa
:0400b800160300002b
:020000040000fa
:0400bc001603000027
:020000040000fa
:0400c0001603000023
:020000040000fa
:0400c400160300001f
:020000040000fa
:0400c800160300001b
:020000040000fa
:0400cc001603000017
:020000040000fa
:0400d0001603000013
:020000040000fa
:0400d400160300000f
:020000040000fa
:0400d800160300000b
:020000040000fa
:0400dc001603000007
:020000040000fa
:0400e0001603000003
:020000040000fa
:0400e40016030000ff
:020000040000fa
:0400e80016030000fb
:020000040000fa
:0400ec0016030000f7
:020000040000fa
:0400f00016030000f3
:020000040000fa
:0400f40016030000ef
:020000040000fa
:0400f80016030000eb
:020000040000fa
:0400fc0016030000e7
:020000040000fa
:0401000016030000e2
:020000040000fa
:0401040016030000de
:020000040000fa
:0401080016030000da
:020000040000fa
:04010c0016030000d6
:020000040000fa
:0401100016030000d2
:020000040000fa
:0401140016030000ce
:020000040000fa
:0401180016030000ca
:020000040000fa
:04011c0016030000c6
:020000040000fa
:0401200016030000c2
:020000040000fa
:0401240016030000be
:020000040000fa
:0401280016030000ba
:020000040000fa
:04012c0016030000b6
:020000040000fa
:0401300016030000b2
:020000040000fa
:0401340016030000ae
:020000040000fa
:0401380016030000aa
:020000040000fa
:04013c0016030000a6
:020000040000fa
:0401400016030000a2
:020000040000fa
:04014400160300009e
:020000040000fa
:04014800160300009a
:020000040000fa
:0402080016030000d9
:020000040000fa
:04020c0016030000d5
:020000040000fa
:0402100016030000d1
:020000040000fa
:0402140016030000cd
:020000040000fa
:0402180016030000c9
:020000040000fa
:04021c0016030000c5
:020000040000fa
:0402200016030000c1
:020000040000fa
:0402240016030000bd
:020000040000fa
:0402280016030000b9
:020000040000fa
:04022c0016030000b5
:020000040000fa
:0402300016030000b1
:020000040000fa
:04023400e0020000e4
:020000040000fa
:0402380016030000a9
:020000040000fa
:04023c0016030000a5
:020000040000fa
:0402400016030000a1
:020000040000fa
:04024400160300009d
:020000040000fa
:040248001603000099
:020000040000fa
:04024c001603000095
:020000040000fa
:040250001603000091
:020000040000fa
:04025400160300008d
:020000040000fa
:040258001603000089
:020000040000fa
:04025c00c8020000d4
:020000040000fa
:040260001603000081
:020000040000fa
:04026400160300007d
:020000040000fa
:040268001603000079
:020000040000fa
:04026c001603000075
:020000040000fa
:040270001603000071
:020000040000fa
:04027400160300006d
:020000040000fa
:040278001603000069
:020000040000fa
:04027c001603000065
:020000040000fa
:040280001603000061
:020000040000fa
:04028400160300005d
:020000040000fa
:040288001603000059
:020000040000fa
:04028c001603000055
:020000040000fa
:040290001603000051
:020000040000fa
:04029400160300004d
:020000040000fa
:040298001603000049
:020000040000fa
:04029c001603000045
:020000040000fa
:0402a0001603000041
:020000040000fa
:0402a400160300003d
:020000040000fa
:0402a8001603000039
:020000040000fa
:0402ac001603000035
:020000040000fa
:0402b0001603000031
:020000040000fa
:0402b400160300002d
:020000040000fa
:0402b8001603000029
:020000040000fa
:0402bc001603000025
:020000040000fa
:0402c0001603000021
:020000040000fa
:0402c400160300001d
:020000040000fa
:0402c8001603000019
:020000040000fa
:0402cc001603000015
:020000040000fa
:0402d0001603000011
:020000040000fa
:0402d400160300000d
:020000040000fa
:0402d8001603000009
:020000040000fa
:0402dc001603000005
:020000040000fa
:0402e0001603000001
:020000040000fa
:0402e40016030000fd
:020000040000fa
:0402e80016030000f9
:020000040000fa
:0402ec0016030000f5
:020000040000fa
:0402f00016030000f1
:020000040000fa
:0402f40016030000ed
:020000040000fa
:0402f80016030000e9
:020000040000fa
:0402fc0016030000e5
:020000040000fa
:0403000016030000e0
:020000040000fa
:0403040016030000dc
:020000040000fa
:0403080016030000d8
:020000040000fa
:04030c0016030000d4
:020000040000fa
:0403100016030000d0
:020000040000fa
:0403140016030000cc
:020000040000fa
:0403180016030000c8
:020000040000fa
:04031c0016030000c4
:020000040000fa
:0403200016030000c0
:020000040000fa
:0403240016030000bc
:020000040000fa
:0403280016030000b8
:020000040000fa
:04032c0016030000b4
:020000040000fa
:0403300016030000b0
:020000040000fa
:0403340016030000ac
:020000040000fa
:0403380016030000a8
:020000040000fa
:04033c0016030000a4
:020000040000fa
:0403400016030000a0
:020000040000fa
:04034400160300009c
:020000040000fa
:040348001603000098
:020000040000fa
:100400002f8020000e7f22000e01880000000000d7
:10041000000020000000e000020032000001200087
:100420002002880014000700820007000000e0009e
:1004300003003a00e04220000100200002003700e3
:100440000000200001002000810f70000100320038
:1004500014000700000020000000e000020032004d
:100460000000020000000000000402000000000084
:100470000040da000000fe004440a9000000200017
:100480000000e0000300320000002000a00188000e
:100490004440a800000006008a1f78008b1f7800e7
:1004a0000000060091018800800478000000eb0045
:1004b0001a003700e284440032a0b4009905ba0063
:1004c000e284440032a0b4009906ba00e2844400f9
:1004d00032a0b4000006eb00476fde00fd07b2005b
:1004e000636ce10003003a00ebff07000000eb0043
:1004f0000a003700606ce10004003a00005deb0088
:100500008b05e900fdff3e00040037006168e10053
:10051000010032000086eb000b00070019c7ba008b
:100520001905ba000e04e00003003a000a00e000da
:10053000e0ff3a0000000600fe07b2009e018800be
:100540008a047800f5ff3700395dba008b05e900b1
:100550000c003200295dba008b05e900080032006a
:100560000c00e00003003a00e284440032a0b40032
:10057000f5ff370019ddba008b05e900faff3a00f4
:100580008904e800e184440032a0b40000000600c1
:10059000801f78003400f80000002000a0018800cf
:1005a0000000fa0085a0a900001880000040880023
:1005b0000080fa003400f9004f0078000040060087
:1005c0003600f800809fbe00829fbe00849fbe0060
:1005d000869fbe003400f80000002000a0018800c3
:1005e0000200fa00004080006500b9008000780039
:1005f000808f2f0000804000000f78001e007800e0
:10060000f20f20008000eb004e0007000080fa008f
:100610003400f9004f03be004f02be004f01be0080
:100620004f00be003600f900004006000040da002e
:080630000000fe0000000500bf
:020000040000fa
:100638000000fa002c23a900c022a800411980005c
:1006480000ff2f00008060000000a0004019880013
:1006580028e3a90011198000f0ff21000080600044
:100668001019880025e3a9002463ef000119800010
:10067800f0f12f00008060000060a00000198800e1
:1006880001198000f0cf2f00008060000019880059
:100698001119800030fc2f000080600010198800bc
:1006a8002043a80085a0a90095a0a8001061a90072
:1006b80013e1a90091088000f0fc2f000080600081
:1006c8000050a0009008880080d02300700888009f
:1006d80013e1a80021e3a8000080fa00000006004a
:1006e8000600fa002007980080002000000f78001c
:1006f8000d0037001e00e900110020008008dd0011
:100708002e00900000806000100798001e009000e6
:100718000000e0000200320041000700010037003d
:10072800380007001e0fe9001e0078000000e000f6
:10073800f0ff3c000080fa00000006000600fa0006
:10074800000f780011079800220798001e00780013
:10075800e3ff07001e009000e1ff07002e00900055
:10076800dfff0700c422ef00340007000080fa0012
:10077800000006000000fa00213a8000f08f2f00e8
:1007880000806000203a8800f0ff29006019880086
:10079800e0ff2f00001688001000200020168800b7
:1007a8000080fa00000006000000fa0005e1a90038
:1007b80021088000f0fc2f00008060000050a0009d
:1007c80020088800701a2600100888009460a80085
:1007d8008460a90005e1a8000080fa000000060076
:1007e8000000fa00e3ff070091ff0700eeff070093
:1007f8000080fa00000006000000fa00f8ff070079
:10080800ffff3700c422ec000300090000000000cd
:10081800c422ed00060009000000000000000600e8
:10082800c422ec000800090000000000c422ed000a
:100838000100090000000000000006003906090058
:100848000000000000000600793e090000000000da
:040858000000060096
:020000040000fa
:10085c000008000002000000000000000000000082
:020000040000fa
:020000040001f9
:0457f8000ff90000a5
:020000040000fa
:020000040001f9
:0457fc007f3f0000eb
:00000001FF
